:020000040800F2
:10000000880600209D01000875250008491F00088A
:10001000712500085504000823290008000000008D
:10002000000000000000000000000000C1260008E1
:10003000570500080000000079250008C3260008C5
:10004000B7010008B7010008B7010008B7010008B0
:10005000B7010008B7010008B7010008B7010008A0
:10006000B7010008B7010008B7010008B701000890
:10007000B7010008B7010008B7010008B701000880
:10008000B7010008B7010008B7010008B701000870
:10009000B7010008B7010008B7010008B701000860
:1000A00095270008C5270008B5270008A5270008E0
:1000B000B7010008B7010008B7010008B701000840
:1000C000B7010008B7010008B7010008B701000830
:1000D000B7010008B7010008B7010008B701000820
:1000E000B7010008B7010008B7010008B701000810
:1000F000B7010008B7010008B7010008B701000800
:10010000B7010008B7010008B7010008B7010008EF
:10011000B7010008B7010008B7010008B7010008DF
:10012000B7010008B7010008590400086904000875
:10013000B7010008B7010008B7010008B7010008BF
:10014000B7010008B7010008B7010008B7010008AF
:10015000B7010008B7010008B7010008B70100089F
:10016000B7010008B7010008B7010008B70100088F
:10017000B7010008B7010008B7010008000000003F
:10018000B7010008B7010008DFF80CD000F07AF8DA
:1001900000480047C12E0008880600200648804716
:1001A00006480047FEE7FEE7FEE7FEE7FEE7FEE75C
:1001B000FEE7FEE7FEE7FEE7812700088901000869
:1001C0002DE9F05F0546002092469B46884606468C
:1001D000814640241BE0284641464746224600F01F
:1001E00041F853465A46C01A914110D31146184659
:1001F000224600F028F82D1A67EB01084F462246E8
:100200000120002100F01FF817EB00094E41201ECD
:10021000A4F10104DFDC484631462A464346BDE8E6
:10022000F09FD2B201E000F8012B491EFBD27047CB
:100230000022F6E710B513460A4604461946FFF7B2
:10024000F0FF204610BD202A04DB203A00FA02F11C
:10025000002070479140C2F1200320FA03F31943B4
:1002600090407047202A04DB203A21FA02F0002156
:10027000704721FA02F3D040C2F1200291400843B6
:1002800019467047064C074D06E0E06840F0010350
:1002900094E8070098471034AC42F6D3FFF778FF94
:1002A0004C2F00086C2F000830B52DED028B83B069
:1002B00004460D46002001900290062201A912205A
:1002C00000F07AF89DF804009DF8051040EA01203E
:1002D00000B208EE100AB8EEC80A3548D0ED000AA0
:1002E00020EE200A84ED000A9DF806009DF8071014
:1002F00040EA012000B208EE100AB8EEC80A2C4805
:10030000D0ED000A20EE200A84ED010A9DF80800D5
:100310009DF8091040EA012000B208EE100AB8EE7C
:10032000C80A2348D0ED000A20EE200A84ED020A14
:10033000062201A9022000F061F89DF804009DF852
:10034000051040EA012000B208EE100AB8EEC80A13
:100350001848D0ED000A20EE200A85ED000A9DF82D
:1003600006009DF8071040EA012000B208EE100ACE
:10037000B8EEC80A0F48D0ED000A20EE200A85ED3D
:10038000010A9DF808009DF8091040EA012000B21A
:1003900008EE100AB8EEC80A0648D0ED000A20EEB2
:1003A000200A85ED020A03B0BDEC028B30BD0000CF
:1003B000280000202C00002070B504460D4616468B
:1003C000002210210C4800F059FB44F0800001226B
:1003D000294600F02FF844F080000122294600F061
:1003E00029F832462946FF2000F024F80122102186
:1003F000014800F043FB70BD0000024070B50446A8
:100400000D46164600220121094800F037FB44F052
:1004100080000122294600F00DF832462946FF20CF
:1004200000F008F801221146014800F027FB70BDDA
:100430000004024037B582B00C46154632202B46E8
:10044000224602A90090024801F0D4F905B030BD5F
:100450002401002000BFFEE710B5024800F080F83C
:1004600010BD00007C01002010B5024800F078F8B3
:1004700010BD0000DC010020014608781038182368
:10048000B0FBF3F20848805CC865032A05D9086808
:100490006FF30900001D886503E008686FF3090029
:1004A0008865886D704700002A2F000801460020EB
:1004B0008A6A8B69CBB932B1012A0DD0022A03D0E6
:1004C000032A10D10EE000BFCB6A03F08073B3F1B2
:1004D000807F00D1012007E0CB6AB3F1C07F00D15B
:1004E000012001E000E000BF34E08B69B3F5005F5C
:1004F0001AD132B1012A07D0022A03D0032A11D11E
:100500000AE000BF01200EE0CB6A03F08073B3F174
:10051000807F00D1012006E0CB6AB3F1C07F00D11B
:10052000012000E000BF15E032B1012A05D0022A07
:1005300004D0032A0CD103E000BF00BF012008E073
:10054000CB6A03F08073B3F1807F00D1012000E01B
:1005500000BF00BF7047704772B600BFFEE70000E3
:10056000F8B50446002000908C4800684FF41651FE
:10057000B0FBF1F7A56D2E6894F85C100820884058
:10058000304098B12068006800F0040070B1206825
:10059000006820F004002168086094F85C100820CE
:1005A0008840A860606D40F00100606594F85C10C0
:1005B00001208840304068B12068406900F0800028
:1005C00040B194F85C1001208840A860606D40F054
:1005D0000200606594F85C1004208840304068B1E7
:1005E0002068006800F0020040B194F85C1004201C
:1005F0008840A860606D40F00400606594F85C106D
:1006000010208840304078B32068006800F008006F
:1006100050B394F85C1010208840A86020680068EF
:1006200000F4802080B12068006800F4002028B920
:10063000206CC8B12046216C884715E0A06C98B1A9
:100640002046A16C88470FE02068006800F48070A5
:1006500028B92068006820F0080021680860206C34
:1006600010B12046216C884794F85C102020884007
:100670003040002865D02068006800F01000002895
:100680005FD094F85C1020208840A86094F8350072
:10069000052828D12068006820F01600216808602D
:1006A0002068406920F0800021684861206C08B90A
:1006B000A06C28B12068006820F00800216808605C
:1006C00094F85C103F208840A860012084F8350031
:1006D00000BF002084F8340000BF206D10B1204618
:1006E000216D8847F8BD2068006800F4802080B143
:1006F0002068006800F4002028B9606C10B1204622
:10070000616C88471DE0E06BD8B12046E16B8847FB
:1007100017E02068006800F4807068B920680068FD
:1007200020F0100021680860012084F8350000BF27
:10073000002084F8340000BFE06B10B12046E16B6C
:100740008847606D38B3606D00F00100F0B105209E
:1007500084F835002068006820F0010021680860F6
:1007600000BF0098401C0090B84200D905E0206806
:10077000006800F001000028F3D100BF012084F8D8
:10078000350000BF002084F8340000BFE06C10B1D9
:100790002046E16C884700BFA4E700007C000020F1
:1007A0002DE9F0410446002500F06EF9074614B922
:1007B0000120BDE8F081606A00B100BF022084F82A
:1007C000350000BF002084F8340000BF20680068B6
:1007D00020F00100216808600AE000F055F9C01B14
:1007E000052805D920206065032084F83500E0E75E
:1007F0002068006800F001000028EED1206805683C
:1008000021480540D4E901010843E1680843216912
:10081000084361690843A1690843E1690843216A03
:1008200008430543606A042803D1D4E90B01084357
:100830000543206805602068456925F00705606A62
:100840000543606A04280DD1A06A0543E06A48B1F7
:100850002046FFF72BFE28B140206065012084F878
:100860003500A6E7206845612046FFF705FE0646ED
:1008700094F85C103F208840B06000206065012043
:1008800084F83500002094E73F8010F0F8B5024668
:100890000B460025002400200021D5E0012606FAA1
:1008A00001F51E6806EA0504AC4274D11E7906F013
:1008B0000306012E04D01E7906F00306022E13D182
:1008C00090684F000326BE40B0434F00DE68BE4034
:1008D00030439060506801268E40B0431E79C6F3C5
:1008E00000168E40304350601E7906F00306032E3A
:1008F00009D0D0684F000326BE40B0434F009E6829
:10090000BE403043D0601E7906F00306022E13D19C
:10091000CF0802F1200656F827004E07F70E0F26E3
:10092000BE40B0434F07FF0E1E69BE403043CF08A4
:1009300002F1200646F8270010684F000326BE404B
:10094000B0431E7906F003064F00BE4030431060EE
:100950005E6806F44036002E75D000BF0026009673
:100960003B4E366846F48046394F3E603E46366818
:1009700006F48046009600BF00BF364E8F0856F83A
:1009800027008E07370F0F26BE40B043324EB242CB
:1009900002D1002624E056E0304EB24201D10126B9
:1009A0001EE02F4EB24201D1022619E02D4EB24276
:1009B00001D1032614E02C4EB24201D104260FE0EF
:1009C0002A4EB24201D105260AE0294EB24201D197
:1009D000062605E0274EB24201D1072600E0082690
:1009E0008F073F0FBE4030431A4E8F0846F827004E
:1009F000214E3068A0435E6806F4803606B120437D
:100A00001D4E3060361D3068A0435E6806F4003627
:100A100006B12043184E361D3060361D3068A043A5
:100A20005E6806F4801606B12043134E0836306027
:100A3000361D3068A0435E6806F4001606B12043F8
:100A40000D4E0C363060491C1029FFF427AFF8BD5D
:100A500044380240083801400000024000040240CF
:100A600000080240000C0240001002400014024046
:100A700000180240001C0240003C01400AB18161A4
:100A800001E00B0483617047014800687047000073
:100A90007000002070B504460CB9012070BD94F8B8
:100AA0003D0028B9002084F83C00204600F0DAF828
:100AB000242084F83D002068006820F001002168AF
:100AC00008602068006840F40040216808602068E1
:100AD000006820F400402168086000F0C5FA05466F
:100AE0005C496068884206D85B48854201D2012093
:100AF00007E0002005E05948854201D2012000E0CE
:100B00000020012800D1C9E75548B5FBF0F6206860
:100B1000406820F03F003043216848604D496068DC
:100B2000884201D8701C07E04FF4967070434FF470
:100B30007A71B0FBF1F0401C2168096A21F03F0195
:100B400008432168086243496068884214D8681ED7
:100B500061684900B0FBF1F0401CC0F30B000428B1
:100B600001D204203DE0681E61684900B0FBF1F04D
:100B7000401CC0F30B0034E0A06838B9681E6168FF
:100B800001EB4101B0FBF1F0401C0AE0681E616816
:100B900001EBC10202EB0111B0FBF1F0401C40F48B
:100BA0008040C0F30B0008B901201AE0A06848B9E2
:100BB000681E616801EB4101B0FBF1F0401CC0F31D
:100BC0000B000CE0681E616801EBC10202EB011131
:100BD000B0FBF1F0401CC0F30B0040F4804040F447
:100BE00000402168C9694CF6FF72914308432168AF
:100BF000C861D4E9070108432168096821F0C001F0
:100C0000084321680860D4E9031008432168896813
:100C100048F2FF329143084321688860D4E9050116
:100C200008432168C96821F0FF0108432168C860B2
:100C30002068006840F001002168086000202064FE
:100C4000202084F83D000020206384F83E0000BF8F
:100C500024E70000A086010080841E0000093D00FA
:100C600040420F0010B586B00446142101A8FFF7DA
:100C7000DFFA2A49206888424DD100BF0020009049
:100C80002748006840F004002549086008460068CD
:100C900000F00400009000BF00BF00BF00200090E3
:100CA0000846006840F0010008600846006800F04F
:100CB0000100009000BF00BF481501901220029073
:100CC00000200390032004900420059001A91548FA
:100CD000FFF7DCFD4FF4807001901220029000209D
:100CE0000390032004900420059001A90E48FFF70B
:100CF000CDFD00BF0020009009481030006840F48E
:100D000000000749103108600846006800F4000040
:100D1000009000BF00BF06B010BD0000005C0040A6
:100D200030380240000802400000024003480068DA
:100D300003490978084401490860704770000020A1
:100D40007800002010B50D48006840F400700B4991
:100D500008600846006840F4806008600846006843
:100D600040F480700860032000F0A2F80F2000F02B
:100D700007F800F02BF8002010BD0000003C0240F6
:100D800070B504460E4800784FF47A71B1FBF0F06C
:100D90000C490968B1FBF0F5284600F040FE08B1A7
:100DA000012070BD102C07D200222146501E00F0F9
:100DB00041F80548046001E00120F2E70020F0E777
:100DC000780000207C0000207400002008B500BFDF
:100DD000002000900E48006840F480400C490860F4
:100DE0000846006800F48040009000BF00BF00BFCC
:100DF00000200090081F006840F08050091F086024
:100E00000846006800F08050009000BF00BF08BD99
:100E10004438024001460846002809DB00F01F0361
:100E200001229A4043099B0003F1E023C3F800210B
:100E300000BF70472DE9F05F80460D46164600273B
:100E400001F084FD074639462A46334601F0070083
:100E5000C0F1070ABAF1040F02D94FF0040A01E009
:100E6000C0F1070AD14600F1040ABAF1070F02D215
:100E70004FF0000A01E0A0F1030AD4464FF0010A46
:100E80000AFA09FAAAF1010A0AEA020A0AFA0CFAAB
:100E90004FF0010B0BFA0CFBABF1010B0BEA030B50
:100EA0004AEA0B042146404601F058FDBDE8F09F98
:100EB00000BF00F00702064B19684FF6FF03194008
:100EC000044B0B4343EA0221014B196000BF7047FA
:100ED0000CED00E00000FA0570B504460D460CB9B3
:100EE000012070BD5848006800F00700A84209D2F0
:100EF00055490D700846006800F00700A84201D06F
:100F00000120EEE7207800F0020002281DD12078B1
:100F100000F00400042805D14C48006840F4E0507B
:100F20004A490860207800F00800082805D14748A1
:100F3000006840F46040454908604448006820F07B
:100F4000F000A168084341490860207800F00100E2
:100F5000A8B36068012807D13C4808380068C0F38E
:100F60004040B8B90120BCE76068022802D0606840
:100F7000032807D1354808380068C0F3406048B9F5
:100F80000120AEE7314808380068C0F3400008B9D6
:100F90000120A6E72D48006820F00300616808439F
:100FA0002A490860FFF770FD064609E0FFF76CFD6F
:100FB000801B41F28831884202D9032091E707E083
:100FC0002248006800F00C006168B0EB810FEDD1A1
:100FD0001D48006800F00700A84209D91A490D70A1
:100FE0000846006800F00700A84201D0012078E719
:100FF000207800F00400042807D11448006820F489
:10100000E050E168084311490860207800F00800CA
:10101000082808D10D48006820F46040216940EAA2
:10102000C1000A49086000F02FF808490968C1F3B7
:101030000311074A515CC840064908600648006829
:10104000FFF79EFE00204CE7003C024008380240BB
:10105000322F00087C000020740000200148006846
:10106000704700007C00002000B5FFF7F7FF04493F
:101070000968C1F38221034A515CC84000BD0000E9
:1010800008380240422F00082DE9F04700240025CF
:101090000026A1462548006800F00C0020B1042875
:1010A00005D008283AD105E0DFF8849039E0DFF870
:1010B000849036E01D48001F006800F03F041B4884
:1010C000001F006800F4800078B11A481749091F12
:1010D0000968C1F38811A0FB017001462246002374
:1010E0003846FFF76DF805460EE011480F49091F15
:1010F0000968C1F38811A0FB017001462246002354
:101100003846FFF75DF805460848001F0068C0F341
:101110000140401C4600B5FBF6F902E0DFF81090F4
:1011200000BF00BF4846BDE8F08700000838024015
:101130000024F40040787D01F8B504460CB9012084
:10114000F8BD207800F00100002874D0F94800684C
:1011500000F00C0004280DD0F648006800F00C00E8
:10116000082813D1F348001F006800F48000B0F590
:10117000800F0BD1EF4808380068C0F340400028CA
:1011800059D06068002856D10120D9E700BF6068B7
:10119000B0F5803F08D1E7480838006840F4803057
:1011A000E449083908601EE06068B0F5A02F0DD151
:1011B000E0480838006840F48020DE4908390860BB
:1011C0000846006840F4803008600CE0D9480838D0
:1011D000006820F48030D749083908600846006864
:1011E00020F48020086000BF606890B1FFF74CFCDD
:1011F000054606E0FFF748FC401B642801D90320A0
:101200009EE7CC4808380068C0F340400028F1D081
:1012100011E0FFF739FC054606E0FFF735FC401BFF
:10122000642801D903208BE7C24808380068C0F35E
:1012300040400028F1D1207800F0020002285FD160
:10124000BC48006800F00C0058B1BA48006800F0D3
:101250000C0008281CD1B748001F006800F480006B
:10126000B0B9B44808380068C0F3400020B1E06865
:10127000012801D0012063E7AE480838006820F05B
:10128000F800216940EAC100AA490839086037E03E
:10129000E06800B30120A8490860FFF7F5FB0546A8
:1012A00006E0FFF7F1FB401B022801D9032047E7C6
:1012B000A04808380068C0F340000028F1D09D48DD
:1012C0000838006820F0F800216940EAC100994917
:1012D0000839086014E0002097490860FFF7D4FB44
:1012E000054606E0FFF7D0FB401B022801D903208A
:1012F00026E7904808380068C0F340000028F1D184
:10130000207800F0080008282CD16069A8B10120DD
:101310008A490860FFF7B8FB054606E0FFF7B4FB13
:10132000401B022801D903200AE782486C3000687C
:10133000C0F340000028F1D014E000207F4908608D
:10134000FFF7A2FB054606E0FFF79EFB401B0228C5
:1013500001D90320F4E677486C300068C0F3400000
:101360000028F1D1207800F00400042870D1002773
:1013700070483830006800F0805090B900BF0020FD
:1013800000906C483830006840F08050694938312E
:1013900008600846006800F08050009000BF00BF61
:1013A00001276748006800F48070B0B9644800689D
:1013B00040F4807062490860FFF766FB054606E06E
:1013C000FFF762FB401B022801D90320B8E65C4806
:1013D000006800F480700028F2D000BFA0680128E7
:1013E00008D154486830006840F001005149683124
:1013F00008601DE0A06805280DD14E4868300068DF
:1014000040F004004B49683108600846006840F02D
:10141000010008600CE047486830006820F00100D7
:101420004449683108600846006820F004000860FC
:1014300000BFA068A8B1FFF727FB054609E0FFF74A
:1014400023FB401B41F28831884202D9032077E612
:1014500026E0384868300068C0F340000028EED02D
:1014600013E0FFF711FB054608E0FFF70DFB401BFB
:1014700041F28831884201D9032061E62D48683065
:101480000068C0F340000028EFD1012F07D12948A0
:101490003830006820F0805026493831086000BF9D
:1014A000A069002845D02348006800F00C000828F7
:1014B0005DD0A069022845D100201F490866FFF7CA
:1014C000E3FA054606E0FFF7DFFA401B022801D9E0
:1014D000032035E6174808380068C0F3406000284C
:1014E000F1D1D4E907010843616A40EA8111012280
:1014F000A06AC2EB500041EA00412C20005D41EAA5
:1015000000600C49091F086001200B490866FFF7BD
:10151000BBFA054606E0FFF7B7FA401B022801D9DF
:1015200003200DE6034808380068C0F34060002837
:10153000F1D049E00838024000004742800E47429F
:1015400000700040002021490866FFF79DFA05461B
:1015500006E0FFF799FA401B022801D90320EFE5C6
:101560001B480068C0F340600028F2D12CE0A0695D
:10157000012800D1E4E51648001D0668A06901288D
:1015800020D006F48001E06981421BD106F03F01C2
:10159000206A814216D147F6C0703040616AB0EBD4
:1015A000811F0FD106F440310122A06AC2EB500026
:1015B000B1EB004F06D106F070612C20005DB1EB5D
:1015C000006F01D00120BBE50020B9E500004742D3
:1015D0000038024010B504460CB9012010BD606A05
:1015E00038B96068B0F5827F00D105E00021E16183
:1015F00002E00021216161610021A16294F85100A3
:1016000028B9002084F85000204600F047F8022056
:1016100084F851002068006820F0400021680860CC
:10162000A08800F48270218901F404410843A18953
:1016300001F400610843217C01F002010843217D8F
:1016400001F001010843218B01F400710843217F5F
:1016500001F0380108432021095D01F080010843B1
:10166000218D01F400510843216808600421A0691C
:1016700001EA104094F8241001F010010843216899
:1016800048602068C06920F400602168C8610020BB
:101690006065012084F8510000209FE710B586B0F6
:1016A0000446142101A8FEF7C3FD4B492068884277
:1016B0007ED100BF002000904848006840F4805070
:1016C000464908600846006800F48050009000BF5A
:1016D00000BF00BF0020009040481438006840F070
:1016E00002003E49143908600846006800F0020014
:1016F000009000BF00BF00BF0020009008460068B7
:1017000040F0010008600846006800F00100009009
:1017100000BF00BF1820019002200290002003901B
:10172000032004900520059001A92D48FFF7AEF88D
:10173000802001900220029000200390032004905A
:101740000520059001A92748FFF7A0F8264827495A
:1017500008604FF0C0604860002124488160C1608B
:101760004FF480610161002141618161C1614FF4E9
:101770004031016200214162FFF712F808B1FEF723
:10178000EBFE00BF1948E064846300BF16481830C0
:10179000174908604FF0C0604860402114488160DC
:1017A0000021C1604FF4806101610021416100E0CE
:1017B00010E08161C1614FF400310162002141629A
:1017C000FEF7EEFF08B1FEF7C7FE00BF0848A064B1
:1017D000846300BF06B010BD0030014044380240B1
:1017E0000004024000000240406402407C010020EE
:1017F000DC0100202DE9FF5F0446884691461D4626
:101800000E9E012002900020019000BF94F850002D
:10181000012803D1022004B0BDE8F09F012084F824
:10182000500000BFFFF730F9074694F851B06068E8
:101830000390AA46BBF1010F0BD00398B0F5827F4D
:1018400004D1A06810B9BBF1040F02D002200190AE
:10185000DBE0B8F1000F03D0B9F1000F00D015B9EB
:1018600001200190D1E094F85100042802D0052015
:1018700084F8510000206065C4F83890E587A5879A
:10188000C4F83080E586A58620646064206800681E
:1018900000F04000402805D02068006840F040007B
:1018A00021680860E068B0F5006F4AD1606810B147
:1018B000BAF1010F09D1206B00882168C860206B44
:1018C000801C2063E08E401EE08633E02068806844
:1018D00000F00200022810D1E08E70B102980128B9
:1018E0000BD1206B00882168C860206B801C2063AE
:1018F000E08E401EE086002002902068806800F0A4
:10190000010068B1E08F58B12068C068A16B088001
:10191000A06B801CA063E08F401EE0870120029036
:10192000FFF7B2F8C01BB04204D3701C10B1032003
:1019300001906AE0E08E0028C8D1E08F0028C5D170
:101940004AE0606810B1BAF1010F09D1206B00784C
:1019500021680873206B401C2063E08E401EE086E7
:1019600034E02068806800F00200022810D1E08E88
:1019700070B1029801280BD1206B007821680873A0
:10198000206B401C2063E08E401EE0860020029009
:101990002068806800F0010068B1E08F58B12068CD
:1019A000C068A16B0870A06B401CA063E08F401E54
:1019B000E08701200290FFF767F8C01BB04201D317
:1019C000701C00B916B9032001901EE0E08E0028BB
:1019D000C7D1E08F0028C4D13A463146204600F0F6
:1019E000CDFD20B101200190202060650DE0A068B0
:1019F00050B900BF002000902068C06800902068A7
:101A00008068009000BF00BF00BF012084F8510033
:101A100000BF002084F8500000BF0198FBE670B5BD
:101A200004462546681EB0F1807F01D301200FE0F7
:101A3000681E4FF0E02148610F214FF0FF3000F0A9
:101A40008DFF00204FF0E021886107200861002011
:101A500070BD70477047000030B502460B4600BFAE
:101A600092F83C00012801D1022030BD012082F80B
:101A70003C0000BF022082F83D00106844681068F6
:101A8000816824F070041868044310684460184D9D
:101A90001068A8421BD01068B0F1804F17D0154DC8
:101AA0001068A84213D0144D1068A8420FD0134DEF
:101AB0001068A8420BD0124D1068A84207D0114DF3
:101AC0001068A84203D0104D1068A84205D121F03B
:101AD00080015868014310688160012082F83D0050
:101AE00000BF002082F83C0000BF00BFBDE700003F
:101AF000000001400004004000080040000C0040CD
:101B000000040140004001400018004010B50446A8
:101B10000CB9012010BD94F83D0028B9002084F8CC
:101B20003C00204600F026F8022084F83D00211DEC
:101B3000206800F04FFE012084F8460000BF84F8C2
:101B40003E0001213F200155402001554120015513
:101B500000BF00BF012084F842004320015544200B
:101B600001554520015500BF012084F83D000020AB
:101B7000D0E7000038B504461A49206888422FD1C2
:101B800000BF002000901848006840F0010016498E
:101B900008600846006800F00100009000BF00BF28
:101BA000002211461820FFF745F91820FFF732F9F7
:101BB000002211461920FFF73DF91920FFF72AF9F5
:101BC000002211461A20FFF735F91A20FFF722F9F3
:101BD000002211461B20FFF72DF91B20FFF71AF9F1
:101BE00038BD00000000014044380240014691F831
:101BF0003D00012801D001207047022081F83D00FE
:101C00000868C06840F001000B68D8601A4B08688B
:101C100098421BD00868B0F1804F17D0174B086866
:101C2000984213D0164B086898420FD0154B08689D
:101C300098420BD0144B0868984207D0134B0868A1
:101C4000984203D0124B086898420CD1086880680B
:101C500000F00702062A0CD00868006840F0010076
:101C60000B68186005E00868006840F001000B6828
:101C700018600020C0E700000000014000040040A0
:101C800000080040000C00400004014000400140FA
:101C9000001800402DE9F04104460D46002700BF22
:101CA00094F83C00012802D10220BDE8F081012017
:101CB00084F83C0000BF022084F83D00206886685C
:101CC00026F0770626F47F4620688660286850282C
:101CD00033D00CDC202850D004DC00284BD0102856
:101CE00051D149E0302849D040284CD139E0602812
:101CF0002DD0702807D0B0F5805F03D0B0F5005F1D
:101D000041D10DE041E0D5E902136A68206800F096
:101D1000CDFD2068866846F077062068866034E04E
:101D2000D5E902136A68206800F0C0FD2068806869
:101D300040F480402168886027E0EA68696820688C
:101D400000F0C8FD5021206800F0BBFD1DE0EA68EE
:101D50006968206800F0D1FD6021206800F0B1FDC5
:101D600013E0EA686968206800F0B4FD402120684B
:101D700000F0A7FD09E000BF00BF00BF2968206890
:101D800000F09FFD01E0012700BF00BF012084F8A3
:101D90003D0000BF002084F83C0000BF384684E7C7
:101DA000704710B5044620680069C0F34000D8B100
:101DB0002068C068C0F34000B0B16FF00200216835
:101DC0000861012020772068806900F0030018B1C5
:101DD0002046FFF7E5FF05E0204600F0ADF820467D
:101DE00000F0ABF80020207720680069C0F3800085
:101DF000D8B12068C068C0F38000B0B16FF00400B3
:101E000021680861022020772068806900F4407012
:101E100018B12046FFF7C4FF05E0204600F08CF81B
:101E2000204600F08AF80020207720680069C0F37F
:101E3000C000D8B12068C068C0F3C000B0B16FF076
:101E4000080021680861042020772068C06900F03C
:101E5000030018B12046FFF7A3FF05E0204600F07D
:101E60006BF8204600F069F80020207720680069B0
:101E7000C0F30010D8B12068C068C0F30010B0B142
:101E80006FF0100021680861082020772068C06981
:101E900000F4407018B12046FFF782FF05E02046AD
:101EA00000F04AF8204600F048F80020207720682B
:101EB000006900F0010058B12068C06800F001001E
:101EC00030B16FF0010021680861204600F036F85B
:101ED00020680069C0F3C01058B12068C068C0F322
:101EE000C01030B16FF08000216808612046FFF714
:101EF000B0FD20680069C0F3801058B12068C06848
:101F0000C0F3801030B16FF04000216808612046B6
:101F100000F019F820680069C0F3401058B120683B
:101F2000C068C0F3401030B16FF020002168086134
:101F30002046FFF78FFD10BD7047704710B504466F
:101F400000F004F810BD704700BFFEE710B500F0C8
:101F500025F8114890ED0B3AF0EE432A90ED0A3A3D
:101F6000B0EE432A90ED093AF0EE431A90ED083AAC
:101F7000B0EE431A90ED073AF0EE430A90ED063AC0
:101F8000B0EE430A00F052F9034A121D111F101D52
:101F900000F0E2FE10BD00008400002000B587B014
:101FA000002004900590069001900290039001A9F2
:101FB00004A8FEF779F99DED040A0C4880ED090AA2
:101FC0009DED050A80ED0A0A9DED060A80ED0B0ADB
:101FD0009DED010A80ED060A9DED020A80ED070ADB
:101FE0009DED030A80ED080A07B000BD84000020C3
:101FF00008B500BF002000900E48006840F4800043
:102000000C4908600846006800F48000009000BF9A
:1020100000BF002211463A20FEF70CFF3A20FEF7DF
:10202000F9FE002211463B20FEF704FF3B20FEF79D
:10203000F1FE08BD3038024000B587B0142102A877
:10204000FEF7F6F800BF002001903748006840F026
:102050000200354908600846006800F0020001905F
:1020600000BF00BF00BF002001900846006840F09C
:10207000010008600846006800F00100019000BF00
:1020800000BF00BF002001900846006840F0040037
:1020900008600846006800F00400019000BF00BF1F
:1020A00000BF002001900846006840F080000860F2
:1020B0000846006800F08000019000BF00BF0022C9
:1020C0004FF440611948FEF7D9FC0022102118484E
:1020D000FEF7D4FC002201211648FEF7CFFC4FF496
:1020E000406002900120039000200490059002A916
:1020F0000E48FEF7CBFB1020029001200390002039
:1021000004900220059002A90948FEF7BFFB0120B8
:1021100002900390002004900220059002A9054837
:10212000FEF7B4FB07B000BD30380240001C02408F
:10213000000002400004024010B50B480B49086043
:102140000B484860002109488160C1604FF480411C
:102150000161002141618161C1610162FEF79AFC68
:1021600008B1FEF7F9F910BD005C0040D000002076
:10217000A086010010B50F480F4908604FF4827027
:10218000486000210C488160C16002210161012189
:102190004161490281613821C161002101624162CE
:1021A00081620A21C162FFF715FA08B1FEF7D4F97E
:1021B00010BD0000003001402401002000B587B0B0
:1021C000002003900490059006900190029015481D
:1021D00015490860A720486000211348816040F23B
:1021E000E731C16000210161416180218161FFF718
:1021F0008DFC08B1FEF7B0F94FF48050039003A9AD
:102200000948FFF747FD08B1FEF7A6F90020019045
:10221000029001A90448FFF71FFC08B1FEF79CF9E2
:1022200007B000BD000001403C02002000B52DEDCC
:10223000068BB0EE403AF0EE603AB0EE414AF0EE76
:10224000615AF0EE424AB0EE625AF5EEC05AF1EE33
:1022500010FA09D1F5EEC04AF1EE10FA04D1B5EE4C
:10226000C05AF1EE10FA7DD065EEA50A44EEA40A3C
:1022700045EE050AB0EE600A00F004FEF0EE402ADA
:1022800025EEA20AF0EE405A24EEA20AF0EE404AF1
:1022900025EE220AB0EE405AA94890ED000AA9485E
:1022A000D0ED000A20EE200AA748D0ED000AA7488A
:1022B00090ED001AF0EE407A40EEC17AA24890ED1F
:1022C000000A9F48D0ED000A20EE200A9F48D0ED7A
:1022D000000A9C4890ED001AB0EE408A00EE818A18
:1022E0009948D0ED000A90ED001AB6EE000A10EE03
:1022F000810A9448D0ED000A90ED001AF0EE408A71
:1023000040EE818A24EEA80AB0EE409A05EE489A83
:1023100025EE270AF0EE409A45EEE89A25EE880A67
:10232000B0EE40AA04EEE7AA894890ED000AB5EEA7
:10233000C00AF1EE10FA40DD90ED000A60EE090AE5
:10234000844890ED000A9FED841A00EE810A80ED2A
:10235000000A7F4890ED000A60EE290A7F4890ED60
:10236000000A00E051E09FED7C1A00EE810A80ED4A
:10237000000A774890ED000A60EE0A0A784890ED6E
:10238000000A9FED751A00EE810A80ED000A71487F
:1023900090ED000A33EE000AB0EE403A6F4890ED3F
:1023A000000A33EE800AF0EE403A6D4890ED000AE4
:1023B00034EE000AB0EE404A0EE09FED6A0A65482E
:1023C00080ED000A9FED670A644880ED000A9FEDEA
:1023D000650A634880ED000A6348D0ED000AB0EE5C
:1023E000430A00EE890AB0EE403AD0ED000AB0EEA2
:1023F000630A00EEA90AF0EE403AD0ED000AB0EE12
:10240000440A00EE8A0AB0EE404A9FED580A23EED5
:10241000000AB0EE403A9FED550A23EE800AF0EE36
:10242000403A9FED520A24EE000AB0EE404A464878
:1024300090ED006A4248D0ED006A444890ED007A81
:10244000B1EE660A20EE030A07EE630A3D48D0EDBE
:10245000000A00EEC40A3C48D0ED000A30EE200A23
:1024600080ED000A26EE030A07EE040A3548D0ED97
:10247000000A00EEE30A3248D0ED000A30EE200AEE
:1024800080ED000A26EE230A06EEC40A2D48D0EDA0
:10249000000A00EE830A2D48D0ED000A30EE200A33
:1024A00080ED000A26EE040A06EEA30A07EE430AB0
:1024B0002448D0ED000A30EE200A80ED000A2248C0
:1024C000D0ED000A90ED001A60EE810A1C4890EDF4
:1024D000001AD0ED001A41EE210A1C4890ED001AB6
:1024E000D0ED001A41EE210A164890ED001AD0ED09
:1024F000001A41EE210AB0EE600A00F0C3FCF0EED3
:10250000402A114890ED000A20EE220A80ED000AD0
:102510000B4890ED000A20EE220A80ED000A0B48DD
:1025200090ED000A20EE220A80ED000A054890EDA9
:10253000000A20EE220A80ED000ABDEC068B00BDE9
:102540005800002060000020540000205C000020A3
:1025500050000020640000206F12833A68000020C1
:102560006C000020000000004C0000206F12033AB5
:1025700000BFFEE700BFFEE7704700007CB50446E1
:102580000D461646164800681821B0FBF1F01549B3
:10259000B0FBF1F04FF47A71484301906068B0F5F8
:1025A000827F0DD12B46002280212046009600F02C
:1025B0001BF898B1606D40F02000606503207CBD81
:1025C00000BF019800B908E00198401E0190206802
:1025D0008068C0F3C0100028F3D100BF0020EEE7F0
:1025E0007C00002040420F002DE9F84F04460D46C4
:1025F00090461E46DDF82890FEF746FAA0EB09004B
:10260000371AFEF741FA82462C480068C0F3CB30F7
:102610007843009045E0701C002842D0FEF734FA61
:10262000A0EB0A00B84200D2A7BB2068406820F0A7
:10263000E000216848606068B0F5827F0DD1A06835
:10264000B0F5004F03D0A068B0F5806F05D12068C9
:10265000006820F0400021680860A06AB0F5005FC3
:102660000DD100BF2068006820F400502168086088
:102670002068006840F400502168086000BF012015
:1026800084F8510000BF002084F8500000BF0320F0
:10269000BDE8F88FFFE7009800B900270098401EBA
:1026A0000090206880682840A84201D1012000E005
:1026B00000204045AFD10020EAE700007C00002068
:1026C000704710B5FEF732FB10BD000000B593B0A7
:1026D000302107A8FDF7ACFD142102A8FDF7A8FDE5
:1026E00000BF002001902448006840F0805022493B
:1026F00008600846006800F08050019000BF00BFED
:1027000000BF002001901D48006840F480401B4934
:1027100008600846006800F48040019000BF00BFD8
:10272000012007900004089002200D9041050E91B1
:1027300019210F914FF4A8711091022111910421D8
:10274000129107A8FEF7F8FC08B1FDF705FF0F206E
:10275000029002200390002004904FF4A0500590B6
:102760004FF480500690052102A8FEF7B5FB08B192
:10277000FDF7F2FE13B000BD40380240007000408B
:102780000348006840F47000014908607047000089
:1027900088ED00E010B50248FFF703FB10BD000014
:1027A0003C02002010B50248FFF7FBFA10BD000004
:1027B0003C02002010B50248FFF7F3FA10BD0000FC
:1027C0003C02002010B50248FFF7EBFA10BD0000F4
:1027D0003C02002010B50268294B98420ED0B0F19F
:1027E000804F0BD0274B984208D0274B984205D0FA
:1027F000264B984202D0264B984203D122F0700219
:102800004B681A431E4B984220D0B0F1804F1DD028
:102810001C4B98421AD01C4B984217D01B4B984225
:1028200014D01B4B984211D01A4B98420ED01A4B21
:1028300098420BD0194B984208D0194B984205D0BA
:10284000184B984202D0184B984203D122F44072A0
:10285000CB681A4322F080034C6943EA0402026009
:102860008B68C3620B688362054B984202D0084BA9
:10287000984201D10B6903630123436110BD00003D
:10288000000001400004004000080040000C00402F
:102890000004014000400140004401400048014064
:1028A00000180040001C00400020004030B50C46DD
:1028B000816821F47F4142EA032525432943816051
:1028C00030BD0A46816821F0700142F007031943C8
:1028D0008160704730B50B461446026A056A25F0E0
:1028E00001050562816921F0F00141EA041122F03D
:1028F0000A021A438161026230BD30B50B461446AC
:10290000056A25F0100505628169026A21F47041AB
:1029100041EA043122F0A00242EA0312816102621C
:1029200030BD00BFFEE74100080218BF04200A0EB8
:1029300018BF40F001004FF07F4232EA010108BFAA
:1029400040F00200012808BF0520704702480068D7
:10295000C0F30220704700000CED00E010B5002825
:1029600004DB0A07130E054A135406E00A07140E87
:10297000034A00F00F031B1FD45410BD00E400E015
:1029800018ED00E010B54FF00E402DED028BB0EECB
:10299000408A18EE104A00EB4400B0F1506F4AD85C
:1029A0004FF0FC40B0EB440F22D2B0EEC80AF7EE75
:1029B000000A30EEC00AF6EE000A60EE208A18EE39
:1029C000900A00F093FA01EE100A14F0004F1DBFB8
:1029D000DFED2D0A9FED2D0AB1EE411ADFED2C0A35
:1029E00008BF9FED2C0AF8EE001A21EE218A05E0BF
:1029F000DFED290A68EE088AB0EE600A9FED271A1B
:102A0000DFED271A30EE080A48EE811A9FED251AED
:102A100008EEA11ADFED241A48EE811A9FED231A61
:102A200008EEA11A68EE281ABDEC028B01EE810AAD
:102A300030EE200A10BD4FF0E440B0EB440F0CD94B
:102A400018EE100AFFF76FFF042808BF00F066F9C0
:102A5000B0EE480ABDEC028B10BD4FF07F40B0EBEA
:102A6000440F07D2B0EE480ABDEC028BBDE810401F
:102A700000F046B9012000F069F9BDEC028BBDE819
:102A8000104000F043B900000000C9BF22AAFDB900
:102A90000000C93F22AAFD390000000024FE1C3DB1
:102AA000C78AD83C1E67383D1B93993DAFAA2A3E82
:102AB00010EE100A10B510EE901A4FF0684202EBBB
:102AC00040032DED028BB3F1654F3CBF02EB410299
:102AD000B2F1654F7CD200BFC0F3C753C1F3C752F8
:102AE0009A1A1B2A09DD10F0004F14BF9FED6E0AE1
:102AF0009FED6E0ABDEC028B10BD12F11A0F1BDAAE
:102B000011F0004F09D010F0004F0CBF9FED680A84
:102B10009FED680ABDEC028B10BD80EE208A18EE96
:102B2000100AFFF700FF042808BF00F0F7F8B0EE26
:102B3000480ABDEC028B10BD4200B2EB410F37D901
:102B400010F0004F19BFDFED5C1A9FED5C1ADFED4E
:102B50005C1A9FED5C1AB0EE602A0A46F1EE400A5C
:102B600080F00041B0EE420A10460A1A5200B2F15B
:102B7000807F34D2484010F0004FDFED532A9FEDA4
:102B8000533A1DBFBEEE002A71EEE21A31EE431A2F
:102B9000B6EE002A04BF71EEA21A31EE031AF0EE6F
:102BA000402A42EE602A40EE020A82EEA02A18E095
:102BB00011F0004F04BF9FED461AF0EE411AD4D039
:102BC00010F0004F1CBFDFED431A9FED431A00E0E9
:102BD00026E004BFDFED411A9FED411AC5E780EE04
:102BE000202A22EE020ADFED3F0ADFED3F2ABDEC8C
:102BF000028B40EE202ADFED3D0A40EE220ADFED97
:102C00003C2A40EE202ADFED3B0A40EE220A22EE6B
:102C1000000A00EE201A31EE020A30EE210A10BD41
:102C20004FF07F42B2EB400F28BFB2EB410F05D20D
:102C3000BDEC028BBDE8104000F065B840EA01032E
:102C40005B0008BF41F0FF410BD0B2EB400F08BF63
:102C5000B2EB410F08D120F0804000EE100A21F0C5
:102C6000804100EE901A37E7B2EB400F12BF5FEAE7
:102C7000410240F0FF4001F000413FF42DAF4A0017
:102C800092EA40033FF528AF002AACBF9FED1A1A25
:102C90009FED1A1A20EE010A60EE810A10EE100A6A
:102CA00010EE901A18E70000DB0FC9BFDB0FC93F19
:102CB000DB0F4940DB0F49C00000C9BF22AAFDB9A4
:102CC0000000C93F22AAFD390060ED3EC30ACE379D
:102CD00000000000000049C022AA7DBA000049405F
:102CE00022AA7D3A2DAD65BD8FB8D53D0FB511BE79
:102CF00061C84C3EA8AAAABE0000804F0000802FE9
:102D000030EE000A704730EE200A7047DFED020A0D
:102D100080EEA00A70470000000000009FED020A4C
:102D200020EE000A704700000000001002E008C812
:102D3000121F08C1002AFAD170477047002001E035
:102D400001C1121F002AFBD1704700000149086031
:102D5000704700008000002070B504460D461646FE
:102D6000434890ED001AD0ED001A21EE211A414897
:102D7000D0ED001A90ED002A01EE821AF7EE001A4B
:102D8000B0EE002A52EE011AF0EE610A384890EDDA
:102D9000001A3948D0ED001A21EE211A3548D0ED3D
:102DA000001A364890ED002A01EE821AF0EE001A61
:102DB00021EE211AB0EE410AFFF77AFEDFED300A6C
:102DC00020EE200A84ED000A2A48D0ED000A2A48A5
:102DD00090ED001A60EE810A254890ED001A274810
:102DE000D0ED001A41EE610AB8EE001A60EE810AD9
:102DF000B0EE600AFFF7C6FDDFED210A20EE200AE3
:102E000085ED000A1A4890ED001AD0ED001A21EE67
:102E1000211A1948D0ED001A90ED002A01EE821A0D
:102E2000F7EE001AB0EE002A52EE011AF0EE610A37
:102E30000F4890ED001A0F48D0ED001A21EE211A2C
:102E40000E48D0ED001A0C4890ED002A01EE821ACF
:102E5000F0EE001A21EE211AB0EE410AFFF728FE2B
:102E6000DFED070A20EE200A86ED000A70BD0000A3
:102E70005400002058000020600000205C0000206A
:102E8000E12E6542F0EE400AF6EE001A60EEA11A5D
:102E9000B0EE611AB0EE600A10EE100A0749A1EB1D
:102EA000600000EE100A21EE002AF7EE081A42EE4A
:102EB000401A61EE801AB0EE610A7047DF59375F41
:102EC000FDF740FFFFF702FCFFF7B6F8FFF790F8B9
:102ED000FFF750F9FFF772F9FFF72EF90248FEF7F6
:102EE00085FE00BFFEE700003C02002010B500EEAA
:102EF000100A2DED028BB1EEC08A18EE100A20F0F8
:102F00000040C0F1FF40C00F0AD010EE100A20F0C0
:102F10000040C0F1FF40C00F04BF0120FFF716FFC3
:102F200018EE100ABDEC028B10BD0006101600064C
:102F30001016000000000000000001020304060754
:102F40000809000000000102030400006C2F0008C3
:102F500000000020840000002C2D0008F02F000845
:102F600084000020040600003C2D00087D04017C44
:102F7000000240AB034100055308065804070F0048
:102F80000810820911000A15800B16000C18010D9B
:102F9000000000003333EB3A58A08B3A0000803F2A
:102FA0000000000000000000000000000000000021
:102FB00000000000000000000000803F0000000052
:102FC0000000803F00000000000000000000000042
:102FD00000000000000000000000000000000000F1
:102FE00010000000010000000024F40000000000B8
:040000050800018965
:00000001FF
